:100000000C9465000C948D000C948D000C94F70CEE
:100010000C94D20C0C94AD0C0C948D000C948D00AF
:100020000C948D000C948D000C948D000C948D001C
:100030000C948D000C948D000C948D000C948D000C
:100040000C940B0C0C948D000C947B0C0C94550CA4
:100050000C948D000C948D000C948D000C948D00EC
:100060000C94EC0A0C948D00000000002300260084
:10007000290052657374617274696E6720696E003D
:1000800000000000250028002B00040404040404E0
:100090000404020202020202030303030303010237
:1000A0000408102040800102040810200102040806
:1000B00010200000000800020100000304070000F7
:1000C000000000000000370DAA1411241FBECFEF5E
:1000D000D8E0DEBFCDBF27E0A0E5B4E001C01D92AF
:1000E000A333B207E1F714E0A0E0B1E0EEEDFEE2E9
:1000F00002C005900D92A035B107D9F710E0C4E613
:10010000D0E004C02197FE010E946515C336D107D7
:10011000C9F70E94F30D0C9462170C94000090E054
:1001200008952091D905260F3327331F2132310539
:10013000ECF42091FF05FC0190E080E0243069F0B0
:1001400082E00895A091D9052191AC0149545A4FFC
:10015000A40FB52FB11D2C930196861798F38091AB
:10016000D905680F6093D90580E0089581E008956E
:10017000089508950895E091AE058091AD05E817C2
:1001800030F4F0E0E357FA4F808190E008958FEF6C
:100190009FEF08959091AE058091AD052FEF3FEF51
:1001A000981748F4E92FF0E0E357FA4F208130E048
:1001B0009F5F9093AE05C90108958091AD05909120
:1001C000AE05891B990B0895CF92DF92EF92FF92B3
:1001D0000F931F93CF93DF937C01CB018A01209172
:1001E0008C05222389F0EB016B01C40ED51ECC15C2
:1001F000DD0569F06991D701ED91FC910190F081E5
:10020000E02DC7010995F3CF642F0E949100C8012A
:10021000DF91CF911F910F91FF90EF90DF90CF90E2
:100220000895CF93DF931F92CDB7DEB769832091F6
:100230008C052223F9F02091AF05203258F021E0FF
:1002400030E0FC013383228390E080E00F90DF9167
:10025000CF9108958091B005E82FF0E0E459FA4F6E
:10026000998190838F5F8093B0058093AF0581E083
:1002700090E0ECCF61E0CE0101960E949100F7CFB3
:1002800090E0FC01EE54FF4F2491FC01E256FF4F39
:100290003491FC01E657FF4FE491EE23C9F022238D
:1002A00039F0233001F1A8F4213019F1223029F17D
:1002B000F0E0EE0FFF1FE058FF4FA591B4918FB70C
:1002C000F894EC91611126C030953E233C938FBF8A
:1002D00008952730A9F02830C9F0243049F78091DB
:1002E00080008F7D03C0809180008F778093800095
:1002F000DFCF84B58F7784BDDBCF84B58F7DFBCF17
:100300008091B0008F778093B000D2CF8091B00001
:100310008F7DF9CF3E2BDACF1092FF0581E08093DD
:1003200001061092000661E082E10E94400161E056
:1003300083E10E944001E9EBF0E080818E7F8083C1
:1003400080818D7F808388E48093B80085E48093EA
:10035000BC000895CF93DF9391E09093B605882376
:10036000B9F0C091B800D091BA008091BC008A7BEE
:100370008093BC0060E082E10E94400160E083E184
:100380000E9440010E948C01D093BA00C093B80033
:10039000DF91CF9108953FB7F894809168059091CF
:1003A0006905A0916A05B0916B0526B5A89B05C0AB
:1003B0002F3F19F00196A11DB11D3FBFBA2FA92FE4
:1003C000982F8827BC01CD01620F711D811D911DE1
:1003D00042E0660F771F881F991F4A95D1F708954D
:1003E0004F925F926F927F929F92AF92BF92CF9205
:1003F000DF92EF92FF920F931F93CF93DF9300D082
:100400001F92CDB7DEB7F09022078091250790911B
:100410002607A0912707B0912807892B8A2B8B2BC1
:10042000D9F00E94CB010091310610913206209143
:10043000330630913406601B710B820B930B0091D5
:10044000250710912607209127073091280760176C
:10045000710782079307C8F20E94CB0160933106AF
:10046000709332068093330690933406E0912D0703
:10047000F0912E07309759F04091290750912A07A3
:1004800060912B0770912C078F2D0995F82E009104
:100490002F06109130064F2C512C712C612C011518
:1004A000110509F45EC0D8011C96EC901C97809150
:1004B0002307909124078436910510F41C961C9212
:1004C000D801ED91FC91A280B38019821A821B821F
:1004D000FF2089F1F8013696D12CC12C21912223DD
:1004E00019F19280992001F130E050E040E02F5F57
:1004F0003F4F4F4F5F4FC301B2010E9404159B0154
:10050000AC01892D90E0B0E0A0E0BC01CD016F5FAF
:100510007F4F8F4F9F4F0E940415A1E0B0E0AC0FBA
:10052000BD1FAC0DBD1D8C93BFEFCB1ADB0A83E062
:10053000C816D10499F6D8011D964D915C911E976D
:1005400012966D917C919E012F5F3F4FC801F5017E
:100550000995D8011C96EC921C9714960D911C914C
:100560009ECF80912D0690912E069C012F5F3F4FCC
:1005700030932E0620932D0649970CF44AC08FB76E
:10058000F894209125063091260640912706509137
:1005900028068FBF8091290690912A06A0912B06EC
:1005A000B0912C06281B390B4A0B5B0B21F421E080
:1005B00030E040E050E0E0912D06F0912E0688EE0C
:1005C00093E0E89FB001E99F700DF89F700D112432
:1005D000072E000C880B990B0E94281530932407D6
:1005E0002093230710922E0610922D062FB7F89411
:1005F0008091250690912606A0912706B0912806A5
:100600002FBF8093290690932A06A0932B06B093C0
:100610002C060F900F900F90DF91CF911F910F91AB
:10062000FF90EF90DF90CF90BF90AF909F907F9022
:100630006F905F904F9008958F929F92AF92BF926C
:10064000CF92DF92EF92FF924B015C010E94CB01AF
:100650006B017C010E94CB016C197D098E099F09F9
:10066000683E734081059105A8F321E0821A910844
:10067000A108B10888EEC80E83E0D81EE11CF11C69
:1006800081149104A104B10429F7FF90EF90DF9049
:10069000CF90BF90AF909F908F90089580E991E0A8
:1006A0000895AF92BF92CF92DF92EF92FF920F9395
:1006B0001F93CF93DF936C017B018B01040F151FF8
:1006C000EB015E01AE18BF08C017D10759F0699160
:1006D000D601ED91FC910190F081E02DC6010995C4
:1006E000892B79F7C501DF91CF911F910F91FF9071
:1006F000EF90DF90CF90BF90AF90089590E080E0B2
:100700000895FC01538D448D252F30E0842F90E017
:10071000821B930B541710F0CF96089501970895FC
:10072000FC01918D828D981761F0A28DAE0FBF2FC5
:10073000B11D5D968C91928D9F5F9F73928F90E01B
:1007400008958FEF9FEF0895FC01918D828D98178A
:1007500031F0828DE80FF11D858D90E008958FEFC7
:100760009FEF0895FC01918D228D892F90E0805C90
:100770009F4F821B91098F739927089581E496E01A
:100780000E94B20321E0892B09F420E0822F089512
:1007900080E090E0892B29F00E94BE0381110C9427
:1007A00000000895FC01A48DA80FB92FB11DA35A14
:1007B000BF4F2C91848D90E001968F739927848F81
:1007C000A689B7892C93A089B1898C9183708064A4
:1007D0008C93938D848D981306C00288F389E02D45
:1007E00080818F7D80830895EF92FF920F931F93F6
:1007F000CF93DF93EC0181E0888F9B8D8C8D9813D4
:100800001AC0E889F989808185FF15C09FB7F894DF
:10081000EE89FF896083E889F9898081837080642B
:1008200080839FBF81E090E0DF91CF911F910F9176
:10083000FF90EF900895F62E0B8D10E00F5F1F4F85
:100840000F731127E02E8C8D8E110CC00FB607FC94
:10085000FACFE889F989808185FFF5CFCE010E9422
:10086000D203F1CFEB8DEC0FFD2FF11DE35AFF4FBB
:10087000F0829FB7F8940B8FEA89FB8980818062B0
:10088000CFCFCF93DF93EC01888D8823B9F0AA896D
:10089000BB89E889F9898C9185FD03C0808186FD3B
:1008A0000DC00FB607FCF7CF8C9185FFF2CF80818A
:1008B00085FFEDCFCE010E94D203E9CFDF91CF912A
:1008C0000895CF92DF92EF92FF920F931F93CF93F1
:1008D000DF93FC01918162818081C38121E02093BB
:1008E0008C05C09385041092B0051092AF056095F9
:1008F0006923682B85E396E00E941101D091AF0532
:10090000D13208F092C00E94CB016B017C01809132
:10091000FF05811165C082E08093FF0581E080932F
:1009200001068FEF8093FE0510922306D0932206D6
:10093000ECE6F5E0A2E0B6E080E0D81385C01092C6
:10094000240680912406CC0FC82BC09324068091E6
:100950000006813009F07CC0109200060E94CB0195
:100960006B017C01809124068093BB008091B205CD
:100970009091B305A091B405B091B505892B8A2B50
:100980008B2B99F00E94CB010091B2051091B30519
:100990002091B4053091B5056C197D098E099F0928
:1009A0000617170728073907E0F18091BC0083FD7F
:1009B000D9CF85EC8093BC000E94CB016B017C01F8
:1009C0008091FF05823009F445C08091FE058F3F7C
:1009D00061F18091FE05803241F18091FE0525C0D4
:1009E0008091B2059091B305A091B405B091B50581
:1009F000892B8A2B8B2B09F48ACF0E94CB01009183
:100A0000B2051091B3052091B4053091B5056C196C
:100A10007D098E099F09061717072807390708F06F
:100A200076CF8091B1050E94AA011092B005109274
:100A3000AF0510928C05DF91CF911F910F91FF9020
:100A4000EF90DF90CF90089591919D938F5F75CF38
:100A500085EEB0CF8091B2059091B305A091B40519
:100A6000B091B505892B8A2B8B2B09F4A9CF0E9455
:100A7000CB010091B2051091B3052091B4053091DE
:100A8000B5056C197D098E099F09061717072807F8
:100A9000390708F095CFC5CF90E0FC01EE0FFF1F9E
:100AA000E459FF4FA591B4912C91FC01EE57FB4FF7
:100AB00030812083880F991FFC01E85FFE4F019071
:100AC000F081E02D808108950F931F93CF93DF93E2
:100AD000209151042F5F322F37703093510420FF43
:100AE0002BC020E831FD2064347009F02062205FC3
:100AF000FC01EC01239600E011E06485662329F0F7
:100B000070E0C8010E9414156F5F6187322F369F15
:100B1000030E30E0311D1124311110C016826623FE
:100B200011F0615061873196EC17FD0731F7DF91C5
:100B3000CF911F910F91089520E0D4CF315036838B
:100B4000EECF4F925F926F927F928F92AF92BF9251
:100B5000CF92DF92EF920F931F93CF93DF933C01DD
:100B6000EB010E94CB01F30127853089621B730BD7
:100B70006A307105B0F3F894E881F9817BB178604F
:100B80006BB1677F6BB9CA848F812C2D281B822F94
:100B90002F83BF844A805B801D850C85DE841F5FA8
:100BA0000F5FD3949E813885A984EB844181D20163
:100BB00020E0C32F522F322F3181442788943111E6
:100BC000380F08F43FEF8195889410FD430F479547
:100BD000889411FD430F4795889412FD430F479564
:100BE000889413FD430F4795889414FD430F479550
:100BF000889415FD430F4795889416FD430F47953C
:100C0000889417FD430F47958894232F1111242FA3
:100C10008C0D422F002C7BB900C047FF6BB930818F
:100C20002227889400C000C0002C6BB93111390F05
:100C300000C0002C7BB900C046FF6BB908F43FEF41
:100C40009195889400C000C0002C6BB900FD230F63
:100C500000C0002C7BB900C045FF6BB92795889474
:100C600001FD230F00C000C0002C6BB927958894AC
:100C700000C0002C7BB900C044FF6BB902FD230FFC
:100C80002795889400C000C0002C6BB903FD230F8A
:100C900000C0002C7BB900C043FF6BB92795889436
:100CA00004FD230F00C000C0002C6BB92795889469
:100CB00000C0002C7BB900C042FF6BB905FD230FBB
:100CC0002795889400C000C0002C6BB906FD230F47
:100CD00000C0002C7BB900C041FF6BB927958894F8
:100CE00007FD230F00C000C0002C6BB92795889426
:100CF00000C0002C7BB900C040FF6BB9432F01112D
:100D0000422F9A0D00C000C0002C6BB900C000C07B
:100D1000002C7BB900C047FF6BB932812227889431
:100D200000C000C0002C6BB931113C0F00C0002C7A
:100D30007BB900C046FF6BB908F43FEFEB0DF11D26
:100D400000C000C0002C6BB9D0FC230F00C0002CE9
:100D50007BB900C045FF6BB927958894D1FC230F60
:100D600000C000C0002C6BB92795889400C0002CEF
:100D70007BB900C044FF6BB9D2FC230F2795889440
:100D800000C000C0002C6BB9D3FC230F00C0002CA6
:100D90007BB900C043FF6BB927958894D4FC230F1F
:100DA00000C000C0002C6BB92795889400C0002CAF
:100DB0007BB900C042FF6BB9D5FC230F27958894FF
:100DC00000C000C0002C6BB9D6FC230F00C0002C63
:100DD0007BB900C041FF6BB927958894D7FC230FDE
:100DE00000C000C0002C6BB92795889400C0002C6F
:100DF0007BB900C040FF6BB9432FD110422FC19582
:100E000000C000C0002C6BB9CE0D00C000C07BB983
:100E100000C047FF6BB931812227889400C000C011
:100E2000002C6BB93111380F00C0002C7BB900C009
:100E300046FF6BB908F43FEF8195889400C000C06D
:100E4000002C6BB910FD230F00C0002C7BB900C033
:100E500045FF6BB92795889411FD230F00C000C092
:100E6000002C6BB92795889400C0002C7BB900C07A
:100E700044FF6BB912FD230F2795889400C000C072
:100E8000002C6BB913FD230F00C0002C7BB900C0F0
:100E900043FF6BB92795889414FD230F00C000C051
:100EA000002C6BB92795889400C0002C7BB900C03A
:100EB00042FF6BB915FD230F2795889400C000C031
:100EC000002C6BB916FD230F00C0002C7BB900C0AD
:100ED00041FF6BB92795889417FD230F00C000C010
:100EE000002C6BB92795889400C0002C7BB900C0FA
:100EF00040FF6BB9432F1111422F8C0D00C000C071
:100F0000002C6BB9119709F086CE20EE31E0D201AA
:100F10000E944A15DC01CB01F4E0B695A7959795A0
:100F20008795FA95D1F730E020E0B901EAE94E9EC5
:100F3000040C611D5E9E600D711D1124650D711DF7
:100F4000860F971FA11DB11D893E43E09407A1059F
:100F5000B10508F434C0885E9340A109B10942E0AC
:100F6000B695A795979587954A95D1F747E0849FC1
:100F7000080E211D949F200D311D1124290F311DB4
:100F80006091500470E0860F971F820F931F40916D
:100F90002506509126066091270670912806292F74
:100FA0003327420F531F611D711D40932506509337
:100FB0002606609327067093280680935004789441
:100FC0000E94CB01F301708B6787DF91CF911F9156
:100FD0000F91EF90DF90CF90BF90AF908F907F9068
:100FE0006F905F904F900895539A08950F931F93B9
:100FF000CF93DF93CDB7DEB762970FB6F894DEBF1D
:101000000FBECDBF8C01F901DC011C968C917A8357
:1010100069835C834B835E834D8390819D8791813F
:101020009E8792819F878130F1F4CE0101960E94C4
:10103000640583E0888B1A8A198AD801ED91FC91A6
:101040000484F585E02DBE016F5F7F4FC8010995CF
:1010500062960FB6F894DEBF0FBECDBFDF91CF9181
:101060001F910F9108951C861B861A861986188673
:101070001F82DFCF0F931F93CF93DF93CDB7DEB7E0
:1010800062970FB6F894DEBF0FBECDBF8C01F90199
:10109000DC011C968C917A8369835C834B835E832D
:1010A0004D8390819D8791819E8792819F8781301A
:1010B000E9F4CE0101960E946405188A1A8A198AF9
:1010C000D801ED91FC910484F585E02DBE016F5FA0
:1010D0007F4FC801099562960FB6F894DEBF0FBE28
:1010E000CDBFDF91CF911F910F9108951C861B8674
:1010F0001A86198618861F82E0CFCF93DF9300D01F
:1011000000D000D0CDB7DEB7AB011C821D821E829D
:10111000DC01ED91FC910190F081E02D19821A82A1
:101120001B829E012F5F3F4FBE016C5F7F4F099571
:1011300026960FB6F894DEBF0FBECDBFDF91CF91DC
:101140000895FC018585968508951F93DC01FB01B8
:101150007C9111964C91119712961C91972F990F93
:10116000990F990F35E5292F239F020E20E0211DAD
:101170001124822F672F6074572F507277FD6FC034
:1011800061115BC0511105C0922F9095892F90E09D
:1011900004C025E5280F90E08BEA4F3F09F424C0F6
:1011A000442309F47DC0882331F0382F349F030E87
:1011B00030E0311D832F222321F0249F020E20E0F6
:1011C000211D992331F0392F349F030E30E0311D5A
:1011D000932F1124342F3095339F030E30E0311DAF
:1011E0001124830F230F930F1F3F09F421C030E018
:1011F000112321F0119F312D09F03F5F332309F4B2
:1012000053C0882331F0482F439F040E40E0411D16
:10121000842F222321F0239F020E20E0211D9923F9
:1012200031F0492F439F040E40E0411D942F1124BB
:101230008083218392831F91089551110BC0392F10
:101240002AEA329F030E30E0311D11249BEA931BE2
:10125000280F9CCF90E02095982F80E09ECF6111C1
:1012600012C051110CC0392F2AEA329F030E30E010
:10127000311D11242BEA231B95E5930FEECF922FFE
:10128000909520E08ACF511106C025E5280F9BEAF2
:10129000981B822FF6CF2AEA280F90E0932FF8CFE1
:1012A0009FEF2FEF8FEFA0CF90E020E080E0C0CF46
:1012B00090E080E008958F929F92AF92BF92CF927C
:1012C000DF92EF92FF920F931F93CF938C01FC015B
:1012D00081818483C3810E94CB016B017C01809159
:1012E000FF05811164C081E08093FF0580930106B2
:1012F0009FEF9093FE051092230610922206809392
:10130000240680912406CC0FC82BC093240680911C
:101310000006813009F078C0109200060E94CB01CF
:101320006B017C01809124068093BB008091B20503
:101330009091B305A091B405B091B505892B8A2B86
:101340008B2BA1F00E94CB018090B2059090B30549
:10135000A090B405B090B5056C197D098E099F0960
:1013600086169706A806B90608F442C08091BC000C
:1013700083FDD8CF85EC8093BC000E94CB016B012C
:101380007C018091FF05813009F440C080912306E3
:1013900081115EC080912306A2E0B6E0EDE8F5E0A1
:1013A00090E0981751F12D9121939F5FFACF809192
:1013B000B2059091B305A091B405B091B505892B04
:1013C0008A2B8B2B09F48BCF0E94CB018090B20526
:1013D0009090B305A090B405B090B5056C197D0947
:1013E0008E099F0986169706A806B90608F077CFDA
:1013F0008091B1050E94AA0180E01092AE05809311
:10140000AD05811127C0FFCF85EEB5CF8091B20524
:101410009091B305A091B405B091B505892B8A2BA5
:101420008B2B09F4AECF0E94CB018090B205909037
:10143000B305A090B405B090B5056C197D098E096F
:101440009F0986169706A806B90608F09ACFD0CF4E
:1014500081E0A2CF85E396E00E94CA00F801818373
:10146000CF911F910F91FF90EF90DF90CF90BF90A1
:10147000AF909F908F900895FC0101900020E9F7B4
:101480003197AF01481B590BBC0181E496E00C94E5
:10149000510384E591E00C943C0A8F929F92AF92A5
:1014A000BF920F931F93CF93DF93CDB7DEB7A19772
:1014B0000FB6F894DEBF0FBECDBF19A2423008F4BC
:1014C0004AE08E010F5D1F4F842E912CB12CA12C70
:1014D000A50194010E942815E62FB901CA01EA303E
:1014E000F4F4E05DD801EE938D01232B242B252B02
:1014F00079F790E080E0109719F0CD010E943C0A46
:10150000A1960FB6F894DEBF0FBECDBFDF91CF918D
:101510001F910F91BF90AF909F908F900895E95CBD
:10152000E1CFBC01990F880B990B4AE00C944D0A4E
:10153000CF93DF930E94910AEC010E94490A8C0F1D
:101540009D1FDF91CF910895CF93DF930E943C0AB6
:10155000EC010E94490A8C0F9D1FDF91CF910895E5
:101560000C943C0A85ED8093BC008091B20590916B
:10157000B305A091B405B091B5050796A11DB11DA5
:1015800023E0B695A795979587952A95D1F7209151
:10159000BC0024FD03C01092FF0508954091B205E0
:1015A0005091B3056091B4057091B505452B462B5C
:1015B000472B69F30097A105B10541F025E32A9572
:1015C000F1F700000197A109B109E1CF8091B105C0
:1015D0000C94AA010E944D171F920F920FB60F9202
:1015E00011242F933F934F935F936F937F938F9328
:1015F0009F93AF93BF93EF93FF938091B900887F40
:10160000803609F44AC0F0F5883209F4A7C018F50D
:10161000803109F49BC0B8F4882309F4F9C08830FC
:1016200009F494C0FF91EF91BF91AF919F918F9179
:101630007F916F915F914F913F912F910F900FBECE
:101640000F901F901895883109F488C0803251F7A7
:101650008093FE0514C0803409F49DC040F48033AB
:10166000B9F38833F9F68093FE0585ECB0C0803578
:1016700009F485C0883509F496C0883499F60E942B
:10168000B20AD0CF883909F48CC038F5883729F0F0
:1016900050F4883611F0803729F683E08093FF05F7
:1016A0001092FD0557C0883809F47BC0803919F0C5
:1016B000803809F0B7CF8091FD05803208F071C005
:1016C000E091FD0581E08E0F8093FD058091BB00C8
:1016D000F0E0E352FA4F80833DC0803B39F0E0F404
:1016E000803A09F479C0883A09F09CCF84E080936D
:1016F000FF051092DA051092D905E091D705F09117
:10170000D80509958091D90581110FC081E080939A
:10171000D9051092B70509C0803C09F4A6CF883CD2
:1017200009F4A3CF883B09F07DCFE091DA0581E091
:101730008E0F8093DA05F0E0E954FA4F80818093B0
:10174000BB009091DA058091D90529C080912406CB
:101750008093BB0085EC8093BC0064CF90912306FE
:1017600080912206981758F5E091230681E08E0FAC
:1017700080932306F0E0EE5FF94F8081E9CFE0919E
:10178000230681E08E0F809323068091BB00F0E05A
:10179000EE5FF94F8083909123068091220698177F
:1017A000C8F285E8D8CFE091230681E08E0F8093C0
:1017B00023068091BB00F0E0EE5FF94F80838091BB
:1017C000010681115CCF81E08093000684EA80935A
:1017D000BC001092FF0526CF85EC8093BC001092D0
:1017E000FF058091FD05803230F4E091FD05F0E0C9
:1017F000E352FA4F10826091FD0570E0E091DB0545
:10180000F091DC058DED95E009951092FD050ACF6C
:101810001092FE0534CF1F920F920FB60F92112433
:101820002F933F938F939F93AF93BF938091250600
:1018300090912606A0912706B09128063091670561
:1018400023E0230F2D3758F50196A11DB11D2093DC
:1018500067058093250690932606A0932706B093EC
:1018600028068091680590916905A0916A05B0915C
:101870006B050196A11DB11D8093680590936905C4
:10188000A0936A05B0936B05BF91AF919F918F9123
:101890003F912F910F900FBE0F901F90189526E843
:1018A000230F0296A11DB11DD2CF1F920F920FB62A
:1018B0000F9211242F933F934F935F936F937F93D6
:1018C0008F939F93AF93BF93EF93FF9381E496E041
:1018D0000E94D203FF91EF91BF91AF919F918F91A1
:1018E0007F916F915F914F913F912F910F900FBE1C
:1018F0000F901F9018951F920F920FB60F92112400
:101900002F938F939F93EF93FF93E0915106F09164
:1019100052068081E0915706F091580682FD1BC067
:10192000908180915A068F5F8F7320915B0682179A
:1019300041F0E0915A06F0E0EF5BF94F958F80930C
:101940005A06FF91EF919F918F912F910F900FBEAB
:101950000F901F9018958081F4CF1F920F920FB6B1
:101960000F9211242F933F934F935F936F937F9325
:101970008F939F93AF93BF93EF93FF9382E00E9467
:101980004C05FF91EF91BF91AF919F918F917F9106
:101990006F915F914F913F912F910F900FBE0F90DC
:1019A0001F9018951F920F920FB60F9211242F932C
:1019B0003F934F935F936F937F938F939F93AF93D7
:1019C000BF93EF93FF9381E00E944C05FF91EF914D
:1019D000BF91AF919F918F917F916F915F914F9147
:1019E0003F912F910F900FBE0F901F9018951F924F
:1019F0000F920FB60F9211242F933F934F935F9343
:101A00006F937F938F939F93AF93BF93EF93FF93C6
:101A100080E00E944C05FF91EF91BF91AF919F91A3
:101A20008F917F916F915F914F913F912F910F9087
:101A30000FBE0F901F901895CF93DF93FC0110827B
:101A4000118212821382148215821682EC0127966B
:101A5000DC011F961992AC17BD07E1F77F961D9226
:101A60001D92EA17FB07D9F7DF91CF9108951092E5
:101A700038061092370688EE93E0A0E0B0E080933D
:101A8000390690933A06A0933B06B0933C0624E3B4
:101A900031E03093360620933506109244061092BA
:101AA00043068093450690934606A0934706B0935D
:101AB000480686E491E0909342068093410685ECC7
:101AC00090E090934E0680934D0684EC90E09093C6
:101AD000500680934F0680EC90E0909352068093DE
:101AE000510681EC90E0909354068093530682EC6B
:101AF00090E0909356068093550686EC90E0909384
:101B000058068093570610925A0610925B06109260
:101B10005C0610925D0610921D0710921C07109231
:101B20001F0710921E07109221071092200760E1F4
:101B300070E090E080E00E949016009709F1909389
:101B40001D0780931C072FE030E030931F07209380
:101B50001E072091200730912107232B11F4FC014F
:101B600010828FE090E0909321078093200767E533
:101B700071E080911C0790911D070E945B1714C0B3
:101B800080911C0790911D07009711F00E94071685
:101B900010921D0710921C07109221071092200727
:101BA00010921F0710921E078DEF96E00E941C0DE9
:101BB0008EED96E00E941C0D8FEF8093220710920D
:101BC00024071092230710922E0710922D078FEFF3
:101BD0009FEFDC018093290790932A07A0932B079E
:101BE000B0932C070895CF93DF9300D01F92CDB709
:101BF000DEB7789484B5826084BD84B5816084BD8D
:101C000085B5826085BD85B5816085BD80916E009A
:101C1000816080936E0010928100809181008260CB
:101C20008093810080918100816080938100809108
:101C300080008160809380008091B10084608093F7
:101C4000B1008091B00081608093B00080917A00F3
:101C5000846080937A0080917A00826080937A0019
:101C600080917A00816080937A0080917A00806808
:101C700080937A001092C1000FB6F894A8958091D5
:101C80006000886180936000109260000FBEE09158
:101C90005106F091520682E08083E0914D06F0916A
:101CA0004E061082E0914F06F091500680E180834D
:101CB00010925906E0915506F091560686E0808311
:101CC000E0915306F0915406808180618083E09119
:101CD0005306F0915406808188608083E09153061A
:101CE000F0915406808180688083E0915306F091E2
:101CF000540680818F7D80830E94490A87E691E0A7
:101D00000E94A40A0E94490A8FE380930007109260
:101D1000AE051092AD051092B0051092AF050E946D
:101D20008C0188EB90E09093D8058093D70589EBE0
:101D300090E09093DC058093DB058DEF96E00E94A8
:101D40005B0910E000E0CC24C394D12C8091FF0605
:101D50007601002E01C0EE0C0A94EAF78E298093DA
:101D6000FF069091FD068E2D809589238093FD06B8
:101D70008DEF96E00E9461048091FD068E2980938C
:101D8000FD068DEF96E00E9461040F5F1F4F083043
:101D90001105E1F668EE73E080E090E00E941C031C
:101DA0008091FD0681608093FD068DEF96E00E9494
:101DB00061048FE991E00E94B00A85EA91E00E94F7
:101DC000B00A90E080E00E94910A81EB91E00E94CD
:101DD000B00A81E090E00E94980A64E170E080E03F
:101DE00090E00E941C038091FD0682608093FD06B6
:101DF0008DEF96E00E9461048FE991E00E94B00AA5
:101E00008BEB91E00E94B00A81E090E00E94910A81
:101E100081EB91E00E94B00A81E090E00E94980A74
:101E200064E170E080E090E00E941C038091FD0678
:101E300084608093FD068DEF96E00E9461048FE937
:101E400091E00E94B00A8DEC91E00E94B00A82E01D
:101E500090E00E94910A81EB91E00E94B00A81E03B
:101E600090E00E94980A64E170E080E090E00E94B7
:101E70001C038091FD0688608093FD068DEF96E03F
:101E80000E9461048FE991E00E94B00A81EE91E026
:101E90000E94B00A83E090E00E94910A81EB91E0F9
:101EA0000E94B00A81E090E00E94980A64E170E02C
:101EB00080E090E00E941C038091FD068061809389
:101EC000FD068DEF96E00E9461048FE991E00E948B
:101ED000B00A84EF91E00E94B00A84E090E00E9492
:101EE000910A81EB91E00E94B00A81E090E00E94AB
:101EF000980A64E170E080E090E00E941C03809109
:101F0000FD0680648093FD068DEF96E00E946104DB
:101F10008FE991E00E94B00A8EEF91E00E94B00A32
:101F200086E090E00E94910A81EB91E00E94B00A65
:101F300081E090E00E94980A64E170E080E090E027
:101F40000E941C038091FD068F7D8093FD068DEF1E
:101F500096E00E9461048FE991E00E94B00A8DE052
:101F600092E00E94B00A85E090E00E94910A81EB25
:101F700091E00E94B00A90E080E00E94980A8AE115
:101F800092E00E94A40A80919904811145C01092A8
:101F90008B0410928A048FEF80938E0480938F04B9
:101FA000809390048093910480939204809393048F
:101FB00081E08093940410929604109295041092FC
:101FC0008D0410928C0480912F0690913006892BFD
:101FD00031F488E894E09093300680932F06E091E6
:101FE0008604F0918704309721F088E894E0958387
:101FF000848388E894E09093870480938604109209
:1020000098041092970482E291E09093890480935F
:10201000880481E080939904539A81EA94E0909334
:102020008B0480938A0480E490E0909396048093DC
:1020300095048091250790912607A0912707B091DC
:102040002807843C29E09207A105B10520F484EC1F
:1020500099E0A0E0B0E08093250790932607A09335
:102060002707B093280784E6809322074091000158
:102070005091010125E038E0429FC001439F900D3F
:10208000529F900D1124875E994C829FA001839FDF
:10209000500D929F500D1124475E594C429FC00134
:1020A000439F900D529F900D1124875E994C909301
:1020B00001018093000110E00FEF19820A830B8366
:1020C000812F0E948F00BC01660F771F680F791F58
:1020D0006F557B4FCE0101960E94A5081F5F1034FB
:1020E00061F70E94F00164EF71E080E090E00E94EF
:1020F0001C0310E0F8E2FF2E0FEFF9820A830B8336
:10210000812F0E948F00BC01660F771F680F791F17
:102110006F557B4FCE0101960E94A5081F5F1034BA
:1021200061F70E94F00164EF71E080E090E00E94AE
:102130001C0310E058E7F52E0FEFF9820A830B839A
:10214000812F0E948F00BC01660F771F680F791FD7
:102150006F557B4FCE0101960E94A5081F5F10347A
:1021600061F70E94F00164EF71E080E090E00E946E
:102170001C0310E038ECF32E0FEFF9820A830B8377
:10218000812F0E948F00BC01660F771F680F791F97
:102190006F557B4FCE0101960E94A5081F5F10343A
:1021A00061F70E94F00164EF71E080E090E00E942E
:1021B0001C0310E004E1F02E0FEFF9820A830B8379
:1021C000812F0E948F00BC01660F771F680F791F57
:1021D0006F557B4FCE0101960E94A5081F5F1034FA
:1021E00061F70E94F00164EF71E080E090E00E94EE
:1021F0001C0310E0FAEAEF2EAFE5FA2E0FEFE982AA
:10220000FA820B83812F0E948F00BC01660F771F1B
:10221000680F791F6F557B4FCE0101960E94A5086C
:102220001F5F103461F70E94F00186E292E00E9485
:10223000A40A89E38093E1061092AE051092AD05E1
:102240001092B0051092AF050E948C0188EB90E0CF
:102250009093D8058093D70589EB90E09093DC05A7
:102260008093DB058EED96E00E945B098091E0068D
:102270008E7F8093E0068091DE068E7F8093DE065F
:102280008EED96E00E9461048091E0068D7F809340
:10229000E0068091DE068D7F8093DE068EED96E06F
:1022A0000E94610482E392E00E94A40A8091FD06EC
:1022B0008F778093FD068DEF96E00E94610460EDBC
:1022C00077E080E090E00E941C0388E199E20FB67D
:1022D000F894A895809360000FBE909360008EEDF7
:1022E00096E00E945B098091DF0681FD73C08EE35A
:1022F00092E00E94A40A60ED77E080E090E00E9406
:102300001C0384E592E00E94A40A8EED96E00E94F0
:102310005B091091DF061695117009F057C0A8955A
:102320003AEAE32E4FE5F42E0FEFE982FA820B83AF
:10233000812F0E948F00BC01660F771F680F791FE5
:102340006F557B4FCE0101960E94A5081F5F103488
:1023500061F70E94F0018FE692E00E94A40A64E611
:1023600070E080E090E00E941C038091FD06816097
:102370008093FD068DEF96E00E9461048AE792E06B
:102380000E94A40A8091FD06877F8093FD068DEF51
:1023900096E00E94610460EA7FE080E090E00E94A5
:1023A0001C038091FD0688608093FD068DEF96E00A
:1023B0000E9461048091FD0680628093FD068DEF8E
:1023C00096E00E94610481E08093660584E892E0D3
:1023D0000E94A40A8091FD0680688093FD068DEF1F
:1023E00096E00E9461048AE992E00E94A40A0E9499
:1023F000490AF0E68F2EA0E0CA2EA0E0DA2EBB2418
:10240000B3941FEFBAEAAB2E0FE5902EA8956AE0C1
:1024100070E080E090E00E941C038EED96E00E9448
:102420005B098091DF0680FD49C2809166058111BC
:1024300045C280916505811141C288EC92E00E94FD
:10244000A40AB09265058091FD068F778093FD0602
:102450008DEF96E00E9461046AE070E080E090E019
:102460000E941C038EED96E00E945B098091DF06BE
:1024700081FD97C180916605811193C188EE92E03C
:102480000E94A40A60ED77E080E090E00E941C03C7
:1024900084E592E00E94A40A8EED96E00E945B091A
:1024A0008091DF06082F027081FD7BC18091FD06BF
:1024B00080688093FD068DEF96E00E94610487EFAF
:1024C00092E00E94A40AA895F12C19821A831B821B
:1024D0008F2D0E948F00BC01660F771F680F791F38
:1024E0006F557B4FCE0101960E94A508F39480E4BE
:1024F000F812EBCF0E94F001A8958091FD068F7B2A
:102500008093FD068DEF96E00E9461048EE093E0DB
:102510000E94A40A8091FD068E7F8093FD068DEFB8
:1025200096E00E9461048CE193E00E94A40A68EEA8
:1025300073E080E090E00E941C038091FD068B7F99
:102540008093FD068DEF96E00E94610487E293E0A0
:102550000E94A40A8091FD0680648093FD068DEFA1
:1025600096E00E94610489E393E00E94A40A60EA75
:102570007FE080E090E00E941C038091FD06877F51
:102580008093FD068DEF96E00E9461048BE493E05A
:102590000E94A40AF12CE12C8CE593E00E94B00A81
:1025A000C7010E94980AE4E0EE16F10409F0A1C107
:1025B0008091FD068F7E8093FD068DEF96E00E9450
:1025C000610480E693E00E94A40A712CA9829A8299
:1025D0001B83872D0E948F00BC01660F771F680F39
:1025E000791F6F557B4FCE0101960E94A508739409
:1025F00080E47812EBCF0E94F0018091FD068E7F7F
:102600008093FD068DEF96E00E946104A89568EE28
:1026100073E080E090E00E941C03712C19821A8301
:102620001B83872D0E948F00BC01660F771F680FE8
:10263000791F6F557B4FCE0101960E94A5087394B8
:1026400020E47212EBCF0E94F0018091FD068160C0
:102650008093FD068DEF96E00E946104A89568EED8
:1026600073E080E090E00E941C03EFEFEE1AFE0A98
:10267000F3E2EF16F10409F08FCFF12C89821A836F
:102680001B838F2D0E948F00BC01660F771F680F80
:10269000791F6F557B4FCE0101960E94A508F394D8
:1026A00080E4F812EBCF0E94F00181E893E00E94F1
:1026B000A40AA89568E873E180E090E00E941C03FA
:1026C0008091FD0684608093FD068DEF96E00E9468
:1026D00061048CE893E00E94A40A8091FD06886062
:1026E0008093FD068DEF96E00E9461048FE993E0F0
:1026F0000E94A40A8091FD0681608093FD068DEF03
:1027000096E00E9461048AE792E00E94A40AA982EE
:102710009A821B83802F0E948F00BC01660F771F57
:10272000680F791F6F557B4FCE0101960E94A50857
:102730000F5F003461F70E94F0018FE692E00E9483
:10274000A40AA89560E777E180E090E00E941C036E
:1027500081EB93E00E94A40AA89568E57BE180E004
:1027600090E00E941C03A8958091FD0682608093F2
:10277000FD068DEF96E00E94610486EC93E00E94D6
:10278000A40A8091FD0680628093FD068DEF96E09D
:102790000E94610487ED93E00E94A40AA895B0927C
:1027A00066056AE070E080E090E00E941C03809182
:1027B0006605882309F4C2C08EED96E00E945B098D
:1027C0008091DF0681FFBAC08CEE93E00E94A40ADC
:1027D0002FB7F8948091250690912606A0912706A0
:1027E000B09128062FBF8093610590936205A09356
:1027F0006305B09364058EED96E00E945B098091BD
:10280000DF0681FF97C0A8952FB7F8948091250621
:1028100090912606A0912706B09128062FBF4091DF
:102820006105509162056091630570916405841B98
:10283000950BA60BB70B81329F4BA240B105B8F1A7
:102840008DEF93E00E94A40A92E7E92E90E0F92E22
:10285000F7016491662349F081E496E00E94F40355
:10286000FFEFEF1AFF0A892B99F70E94490A6AEFD6
:1028700070E080E090E00E941C0383E0482E512C21
:10288000612C712C4AE0C301B2010E944D0A0E94E2
:10289000490A68EE73E080E090E00E941C0321E0AA
:1028A000421A51086108710869F70C94000064E647
:1028B00070E080E090E00E941C039DCF8EED96E0DA
:1028C0000E945B098091DF0680FFC6CD809166057E
:1028D0008111C2CD80916505882309F4BDCD87EDB6
:1028E00092E00E94A40A109265058091FD0680681E
:1028F000ADCDFAE0EF16F10461F48091FD06806140
:102900008093FD068DEF96E00E94610488E693E0D7
:102910005ACE2CE0E216F10409F057CE8091FD0664
:102920008D7F8093FD068DEF96E00E94610481E724
:1029300093E049CE82E294E00E94A40AC114D1043B
:1029400009F464CD0E94BE03882309F45FCD0E9480
:1029500000005CCD80911C0790911D07009711F03D
:102960000C94071608950E94F514A59F900DB49F2E
:10297000900DA49F800D911D112408952F923F92D8
:102980004F925F926F927F928F929F92AF92BF927F
:10299000CF92DF92EF92FF920F931F93CF93DF932B
:1029A000CDB7DEB7CA1BDB0B0FB6F894DEBF0FBE88
:1029B000CDBF09942A88398848885F846E847D84D5
:1029C0008C849B84AA84B984C884DF80EE80FD80D7
:1029D0000C811B81AA81B981CE0FD11D0FB6F8944D
:1029E000DEBF0FBECDBFED010895A29FB001B39F22
:1029F000C001A39F700D811D1124911DB29F700D08
:102A0000811D1124911D0895DB018F939F930E94D6
:102A1000B314BF91AF91A29F800D911DA39F900D04
:102A2000B29F900D1124089597FB072E16F4009481
:102A300007D077FD09D00E94511507FC05D03EF460
:102A4000909581959F4F0895709561957F4F08955A
:102A5000A1E21A2EAA1BBB1BFD010DC0AA1FBB1FA2
:102A6000EE1FFF1FA217B307E407F50720F0A21B14
:102A7000B30BE40BF50B661F771F881F991F1A9481
:102A800069F760957095809590959B01AC01BD01AB
:102A9000CF0108950E94F514B7FF0895821B930B90
:102AA0000895AA1BBB1B51E107C0AA1FBB1FA61795
:102AB000B70710F0A61BB70B881F991F5A95A9F7E7
:102AC00080959095BC01CD010895EE0FFF1F0590F4
:102AD000F491E02D09940F931F93CF93DF938230ED
:102AE000910510F482E090E0E0913107F091320717
:102AF00030E020E0B0E0A0E0309799F421153105F6
:102B000009F44AC0281B390B24303105D8F58A81D5
:102B10009B816115710589F1FB0193838283FE011D
:102B200011C0408151810281138148175907E0F09B
:102B30004817590799F4109761F012960C93129761
:102B400013961C933296CF01DF91CF911F910F9175
:102B500008950093310710933207F4CF2115310502
:102B600051F04217530738F0A901DB019A01BD016A
:102B7000DF01F801C1CFEF01F9CF909332078093C5
:102B80003107CDCFFE01E20FF31F819391932250C5
:102B9000310939832883D7CF20912F07309130070F
:102BA000232B41F42091040130910501309330072B
:102BB00020932F0720910201309103012115310547
:102BC00041F42DB73EB74091060150910701241BF7
:102BD000350BE0912F07F0913007E217F307A0F4CF
:102BE0002E1B3F0B2817390778F0AC014E5F5F4F63
:102BF0002417350748F04E0F5F1F5093300740935E
:102C00002F07819391939FCFF0E0E0E09CCFCF938B
:102C1000DF930097E9F0FC01329713821282A091B2
:102C20003107B0913207ED0130E020E01097A1F4B8
:102C300020813181820F931F20912F07309130071F
:102C40002817390709F061C0F0933007E0932F0788
:102C5000DF91CF910895EA01CE17DF07E8F54A81A9
:102C60005B819E0141155105B1F7E901FB83EA83C0
:102C700049915991C40FD51FEC17FD0761F480816C
:102C800091810296840F951FE9019983888382813F
:102C900093819B838A83F0E0E0E012968D919C9172
:102CA00013970097B9F52D913C911197CD0102969C
:102CB000820F931F20912F07309130072817390773
:102CC00039F6309751F51092320710923107B093D0
:102CD0003007A0932F07BCCFD383C283408151819B
:102CE000840F951FC817D90761F44E5F5F4F888125
:102CF0009981480F591F518340838A819B81938317
:102D000082832115310509F0B0CFF0933207E093AB
:102D100031079ECFFD01DC01C0CF13821282D7CFD5
:102D2000B0E0A0E0E6E9F6E10C94C0148C01009755
:102D300051F4CB010E946B158C01C801CDB7DEB7F1
:102D4000E0E10C94DC14FC01E60FF71F9C0122501B
:102D50003109E217F30708F49DC0D901CD91DC9148
:102D60001197C617D70798F0C530D10530F3CE01BB
:102D700004978617970708F3C61BD70B2297C193B2
:102D8000D1936D937C93CF010E940716D6CF5B0140
:102D9000AC1ABD0A4C018C0E9D1EA0913107B0915A
:102DA0003207512C412CF12CE12C109731F58091F8
:102DB0002F07909130078815990509F05CC04616D9
:102DC000570608F058C080910201909103010097C6
:102DD00041F48DB79EB74091060150910701841BC5
:102DE000950BE817F90708F055C0F0933007E0930A
:102DF0002F07F90171836083A0CF8D919C9111976A
:102E000012966C90129713967C901397A815B9059B
:102E100059F56C0142E0C40ED11CCA14DB0420F148
:102E2000AC014A195B09DA011296159780F06282AB
:102E3000738251834083D9016D937C93E114F10433
:102E400071F0D7011396FC93EE93129776CF2296EA
:102E50008C0F9D1FF90191838083F301EFCFF093D5
:102E60003207E093310769CF4816590608F42C0160
:102E70007D01D3019ACFCB010E946B157C01009795
:102E800049F0AE01B8010E945217C8010E9407160E
:102E9000870153CF10E000E050CF81E090E0F8943C
:102EA0000C946217FB01DC0102C001900D924150AD
:102EB0005040D8F70895FB01DC0101900D920020ED
:102EC000E1F7089510E0C4E6D0E004C0FE010E94DE
:0E2ED00065152196C536D107C9F7F894FFCFD6
:102EDE0039050000330780006B006C006D000000A8
:102EEE000000EA0AEA0AEA0A7D08A1085809000069
:102EFE0000003A08F607F4077D08A1084E03A10565
:102F0E00000000001101E4007E03BA00DD00CA00DB
:102F1E00BB0000000000F403510381034104B2031F
:102F2E009003A4030D0A00436C65616E20526F6F0F
:102F3E006D2076312E30003D3D3D3D3D3D3D3D3DCC
:102F4E003D3D3D3D3D3D3D3D3D3D64617465203122
:102F5E00382E30312E323032323D3D3D3D3D3D3DFD
:102F6E003D3D3D3D3D3D3D3D3D3D3D3D3D3D0020DD
:102F7E002020202000416C61726D2050696E205B14
:102F8E00005D2073657420746F20004269672046CF
:102F9E00616E204F55542050696E205B00536D6159
:102FAE006C6C2046616E204F55542050696E205B2C
:102FBE0000536D616C6C2046616E20494E20506945
:102FCE006E205B00466F672050696E205B00567462
:102FDE007269676765722050696E205B004D61678C
:102FEE006E65742050696E205B0052656C61793A93
:102FFE002020206F6B004C45443A20202020206F6B
:10300E006B00496E707574733A20206F6B004C61C3
:10301E006220646F6F7220616C7265616479206FDB
:10302E0070656E004C616220646F6F723A206F7033
:10303E00656E2028326E6420636865636B29004CD0
:10304E0045443A207768697465004C696768743A3C
:10305E00206F6E004A756D70656420746F2066690E
:10306E006E616C207374617465003D3D3D3D3D3D68
:10307E003D3D3D3D3D3D3D3D3D3D3D3D3D53544141
:10308E0052543D3D3D3D3D3D3D3D3D3D3D3D3D3D36
:10309E003D3D3D3D3D3D3D00456E7472616E636547
:1030AE003A206F70656E00456E7472616E63653A9C
:1030BE0020636C6F736564004C616220646F6F7285
:1030CE003A206F70656E004465636F6E74616D6952
:1030DE006E6174696F6E3A2073746172740054720B
:1030EE00696767657220566964656F004C69676829
:1030FE00743A206F66660046616E204F55542073F9
:10310E006D616C6C3A206F6E005472696767657200
:10311E0020566964656F206F66660046616E2049B1
:10312E004E20736D616C6C3A206F6E007A3A2000FF
:10313E00466F673A206F6E00466F673A206F66667D
:10314E000046616E204F5554206269673A206F6EBB
:10315E00004C45443A20677265656E0046616E20EC
:10316E004F555420736D616C6C3A206F6666004645
:10317E00616E20494E20736D616C6C3A206F6666ED
:10318E0000436C65616E20726F6F6D3A20756E6CC8
:10319E006F636B65640046616E204F555420626903
:1031AE00673A206F6666004465636F6E74616D6981
:1031BE006E6174696F6E3A20656E64004C616220B8
:1031CE00646F6F723A20636C6F736564004C61625A
:1031DE0020646F6F723A20636C6F73656420666F44
:1031EE00722033206D696E73202D3E20524553455B
:1031FE0054004C616220646F6F723A206F70656E7E
:10320E006564206265666F72652033206D696E732A
:10321E00202D3E2074696D657252657365740000D1
:00000001FF
